{
  "contractName": "Marketplus",
  "abi": [
    {
      "inputs": [],
      "payable": false,
      "stateMutability": "nonpayable",
      "type": "constructor"
    },
    {
      "anonymous": false,
      "inputs": [
        {
          "indexed": false,
          "internalType": "uint256",
          "name": "id",
          "type": "uint256"
        },
        {
          "indexed": false,
          "internalType": "string",
          "name": "name",
          "type": "string"
        },
        {
          "indexed": false,
          "internalType": "uint256",
          "name": "price",
          "type": "uint256"
        },
        {
          "indexed": false,
          "internalType": "uint256",
          "name": "stock",
          "type": "uint256"
        },
        {
          "indexed": false,
          "internalType": "address payable",
          "name": "owner",
          "type": "address"
        }
      ],
      "name": "ProductCreated",
      "type": "event"
    },
    {
      "anonymous": false,
      "inputs": [
        {
          "indexed": false,
          "internalType": "uint256",
          "name": "id",
          "type": "uint256"
        },
        {
          "indexed": false,
          "internalType": "string",
          "name": "name",
          "type": "string"
        },
        {
          "indexed": false,
          "internalType": "uint256",
          "name": "price",
          "type": "uint256"
        },
        {
          "indexed": false,
          "internalType": "uint256",
          "name": "stock",
          "type": "uint256"
        },
        {
          "indexed": false,
          "internalType": "address payable",
          "name": "owner",
          "type": "address"
        }
      ],
      "name": "ProductPurchased",
      "type": "event"
    },
    {
      "constant": true,
      "inputs": [],
      "name": "name",
      "outputs": [
        {
          "internalType": "string",
          "name": "",
          "type": "string"
        }
      ],
      "payable": false,
      "stateMutability": "view",
      "type": "function"
    },
    {
      "constant": true,
      "inputs": [
        {
          "internalType": "uint256",
          "name": "",
          "type": "uint256"
        }
      ],
      "name": "productlist",
      "outputs": [
        {
          "internalType": "uint256",
          "name": "id",
          "type": "uint256"
        },
        {
          "internalType": "string",
          "name": "name",
          "type": "string"
        },
        {
          "internalType": "uint256",
          "name": "price",
          "type": "uint256"
        },
        {
          "internalType": "uint256",
          "name": "stock",
          "type": "uint256"
        },
        {
          "internalType": "address payable",
          "name": "owner",
          "type": "address"
        }
      ],
      "payable": false,
      "stateMutability": "view",
      "type": "function"
    },
    {
      "constant": true,
      "inputs": [],
      "name": "getList",
      "outputs": [
        {
          "components": [
            {
              "internalType": "uint256",
              "name": "id",
              "type": "uint256"
            },
            {
              "internalType": "string",
              "name": "name",
              "type": "string"
            },
            {
              "internalType": "uint256",
              "name": "price",
              "type": "uint256"
            },
            {
              "internalType": "uint256",
              "name": "stock",
              "type": "uint256"
            },
            {
              "internalType": "address payable",
              "name": "owner",
              "type": "address"
            }
          ],
          "internalType": "struct Marketplus.Product[]",
          "name": "",
          "type": "tuple[]"
        }
      ],
      "payable": false,
      "stateMutability": "view",
      "type": "function"
    },
    {
      "constant": true,
      "inputs": [],
      "name": "getLength",
      "outputs": [
        {
          "internalType": "uint256",
          "name": "",
          "type": "uint256"
        }
      ],
      "payable": false,
      "stateMutability": "view",
      "type": "function"
    },
    {
      "constant": true,
      "inputs": [],
      "name": "getName",
      "outputs": [
        {
          "internalType": "string",
          "name": "",
          "type": "string"
        }
      ],
      "payable": false,
      "stateMutability": "view",
      "type": "function"
    },
    {
      "constant": false,
      "inputs": [
        {
          "internalType": "string",
          "name": "_name",
          "type": "string"
        },
        {
          "internalType": "uint256",
          "name": "_price",
          "type": "uint256"
        },
        {
          "internalType": "uint256",
          "name": "_stock",
          "type": "uint256"
        }
      ],
      "name": "createProduct",
      "outputs": [],
      "payable": false,
      "stateMutability": "nonpayable",
      "type": "function"
    },
    {
      "constant": false,
      "inputs": [
        {
          "internalType": "uint256",
          "name": "_id",
          "type": "uint256"
        },
        {
          "internalType": "uint256",
          "name": "_number",
          "type": "uint256"
        }
      ],
      "name": "purchaseProduct",
      "outputs": [],
      "payable": true,
      "stateMutability": "payable",
      "type": "function"
    }
  ],
  "bytecode": "0x60806040523480156200001157600080fd5b506040518060400160405280601a81526020017f4461707020556e6976657273697479204d61726b6574706c7573000000000000815250600090805190602001906200005f92919062000066565b5062000115565b828054600181600116156101000203166002900490600052602060002090601f016020900481019282601f10620000a957805160ff1916838001178555620000da565b82800160010185558215620000da579182015b82811115620000d9578251825591602001919060010190620000bc565b5b509050620000e99190620000ed565b5090565b6200011291905b808211156200010e576000816000905550600101620000f4565b5090565b90565b61120980620001256000396000f3fe6080604052600436106100705760003560e01c8063942b765a1161004e578063942b765a146100f4578063a04404261461011f578063be1c766b1461013b578063debd866e1461016657610070565b806306fdde031461007557806317d7de7c146100a05780637bf12b1c146100cb575b600080fd5b34801561008157600080fd5b5061008a6101a7565b6040516100979190610f08565b60405180910390f35b3480156100ac57600080fd5b506100b5610245565b6040516100c29190610f2a565b60405180910390f35b3480156100d757600080fd5b506100f260048036036100ed9190810190610bc9565b6102e7565b005b34801561010057600080fd5b50610109610451565b6040516101169190610ee6565b60405180910390f35b61013960048036036101349190810190610c59565b6105c6565b005b34801561014757600080fd5b5061015061092e565b60405161015d9190610f4c565b60405180910390f35b34801561017257600080fd5b5061018d60048036036101889190810190610c30565b61093b565b60405161019e959493929190610fc1565b60405180910390f35b60008054600181600116156101000203166002900480601f01602080910402602001604051908101604052809291908181526020018280546001816001161561010002031660029004801561023d5780601f106102125761010080835404028352916020019161023d565b820191906000526020600020905b81548152906001019060200180831161022057829003601f168201915b505050505081565b606060008054600181600116156101000203166002900480601f0160208091040260200160405190810160405280929190818152602001828054600181600116156101000203166002900480156102dd5780601f106102b2576101008083540402835291602001916102dd565b820191906000526020600020905b8154815290600101906020018083116102c057829003601f168201915b5050505050905090565b6000808451116102f657600080fd5b6000831161030357600080fd5b6000821161031057600080fd5b61031b612710610a36565b905060016040518060a001604052808381526020018681526020018581526020018481526020013373ffffffffffffffffffffffffffffffffffffffff16815250908060018154018082558091505090600182039060005260206000209060050201600090919290919091506000820151816000015560208201518160010190805190602001906103ad929190610a76565b50604082015181600201556060820151816003015560808201518160040160006101000a81548173ffffffffffffffffffffffffffffffffffffffff021916908373ffffffffffffffffffffffffffffffffffffffff1602179055505050507f75f809131c39228d740da0b686206b8ae86548c72bfdc872da71f4d4340301de8185858533604051610443959493929190610f67565b60405180910390a150505050565b60606001805480602002602001604051908101604052809291908181526020016000905b828210156105bd57838290600052602060002090600502016040518060a001604052908160008201548152602001600182018054600181600116156101000203166002900480601f01602080910402602001604051908101604052809291908181526020018280546001816001161561010002031660029004801561053b5780601f106105105761010080835404028352916020019161053b565b820191906000526020600020905b81548152906001019060200180831161051e57829003601f168201915b5050505050815260200160028201548152602001600382015481526020016004820160009054906101000a900473ffffffffffffffffffffffffffffffffffffffff1673ffffffffffffffffffffffffffffffffffffffff1673ffffffffffffffffffffffffffffffffffffffff168152505081526020019060010190610475565b50505050905090565b6105ce610af6565b600080600090505b60018054905081101561075c5784600182815481106105f157fe5b906000526020600020906005020160000154141561074f578091506001828154811061061957fe5b90600052602060002090600502016040518060a001604052908160008201548152602001600182018054600181600116156101000203166002900480601f0160208091040260200160405190810160405280929190818152602001828054600181600116156101000203166002900480156106d55780601f106106aa576101008083540402835291602001916106d5565b820191906000526020600020905b8154815290600101906020018083116106b857829003601f168201915b5050505050815260200160028201548152602001600382015481526020016004820160009054906101000a900473ffffffffffffffffffffffffffffffffffffffff1673ffffffffffffffffffffffffffffffffffffffff1673ffffffffffffffffffffffffffffffffffffffff1681525050925061075c565b80806001019150506105d6565b50600082600001511015801561077757506127108260000151105b61078057600080fd5b828260600151101561079157600080fd5b828260400151023410156107a457600080fd5b3373ffffffffffffffffffffffffffffffffffffffff16826080015173ffffffffffffffffffffffffffffffffffffffff1614156107e157600080fd5b8282606001818151039150818152505081600182815481106107ff57fe5b9060005260206000209060050201600082015181600001556020820151816001019080519060200190610833929190610a76565b50604082015181600201556060820151816003015560808201518160040160006101000a81548173ffffffffffffffffffffffffffffffffffffffff021916908373ffffffffffffffffffffffffffffffffffffffff160217905550905050816080015173ffffffffffffffffffffffffffffffffffffffff166108fc349081150290604051600060405180830381858888f193505050501580156108dc573d6000803e3d6000fd5b507fd922a2fffde7c04efb85e105cb4324b2ebe96919a6a107b6c63afb85484b8da98483602001518460400151856060015133604051610920959493929190610fc1565b60405180910390a150505050565b6000600180549050905090565b6001818154811061094857fe5b9060005260206000209060050201600091509050806000015490806001018054600181600116156101000203166002900480601f0160208091040260200160405190810160405280929190818152602001828054600181600116156101000203166002900480156109fa5780601f106109cf576101008083540402835291602001916109fa565b820191906000526020600020905b8154815290600101906020018083116109dd57829003601f168201915b5050505050908060020154908060030154908060040160009054906101000a900473ffffffffffffffffffffffffffffffffffffffff16905085565b600081424433604051602001610a4e93929190610ea9565b6040516020818303038152906040528051906020012060001c81610a6e57fe5b069050919050565b828054600181600116156101000203166002900490600052602060002090601f016020900481019282601f10610ab757805160ff1916838001178555610ae5565b82800160010185558215610ae5579182015b82811115610ae4578251825591602001919060010190610ac9565b5b509050610af29190610b3b565b5090565b6040518060a0016040528060008152602001606081526020016000815260200160008152602001600073ffffffffffffffffffffffffffffffffffffffff1681525090565b610b5d91905b80821115610b59576000816000905550600101610b41565b5090565b90565b600082601f830112610b7157600080fd5b8135610b84610b7f82611048565b61101b565b91508082526020830160208301858383011115610ba057600080fd5b610bab838284611121565b50505092915050565b600081359050610bc3816111af565b92915050565b600080600060608486031215610bde57600080fd5b600084013567ffffffffffffffff811115610bf857600080fd5b610c0486828701610b60565b9350506020610c1586828701610bb4565b9250506040610c2686828701610bb4565b9150509250925092565b600060208284031215610c4257600080fd5b6000610c5084828501610bb4565b91505092915050565b60008060408385031215610c6c57600080fd5b6000610c7a85828601610bb4565b9250506020610c8b85828601610bb4565b9150509250929050565b6000610ca18383610dfe565b905092915050565b610cb2816110e5565b82525050565b610cc1816110e5565b82525050565b610cd8610cd3826110e5565b611163565b82525050565b6000610ce982611084565b610cf381856110b2565b935083602082028501610d0585611074565b8060005b85811015610d415784840389528151610d228582610c95565b9450610d2d836110a5565b925060208a01995050600181019050610d09565b50829750879550505050505092915050565b6000610d5e8261109a565b610d6881856110d4565b9350610d78818560208601611130565b610d8181611191565b840191505092915050565b6000610d978261108f565b610da181856110c3565b9350610db1818560208601611130565b610dba81611191565b840191505092915050565b6000610dd08261108f565b610dda81856110d4565b9350610dea818560208601611130565b610df381611191565b840191505092915050565b600060a083016000830151610e166000860182610e74565b5060208301518482036020860152610e2e8282610d8c565b9150506040830151610e436040860182610e74565b506060830151610e566060860182610e74565b506080830151610e696080860182610ca9565b508091505092915050565b610e7d81611117565b82525050565b610e8c81611117565b82525050565b610ea3610e9e82611117565b611187565b82525050565b6000610eb58286610e92565b602082019150610ec58285610e92565b602082019150610ed58284610cc7565b601482019150819050949350505050565b60006020820190508181036000830152610f008184610cde565b905092915050565b60006020820190508181036000830152610f228184610dc5565b905092915050565b60006020820190508181036000830152610f448184610d53565b905092915050565b6000602082019050610f616000830184610e83565b92915050565b600060a082019050610f7c6000830188610e83565b8181036020830152610f8e8187610d53565b9050610f9d6040830186610e83565b610faa6060830185610e83565b610fb76080830184610cb8565b9695505050505050565b600060a082019050610fd66000830188610e83565b8181036020830152610fe88187610dc5565b9050610ff76040830186610e83565b6110046060830185610e83565b6110116080830184610cb8565b9695505050505050565b6000604051905081810181811067ffffffffffffffff8211171561103e57600080fd5b8060405250919050565b600067ffffffffffffffff82111561105f57600080fd5b601f19601f8301169050602081019050919050565b6000819050602082019050919050565b600081519050919050565b600081519050919050565b600081519050919050565b6000602082019050919050565b600082825260208201905092915050565b600082825260208201905092915050565b600082825260208201905092915050565b60006110f0826110f7565b9050919050565b600073ffffffffffffffffffffffffffffffffffffffff82169050919050565b6000819050919050565b82818337600083830152505050565b60005b8381101561114e578082015181840152602081019050611133565b8381111561115d576000848401525b50505050565b600061116e82611175565b9050919050565b6000611180826111a2565b9050919050565b6000819050919050565b6000601f19601f8301169050919050565b60008160601b9050919050565b6111b881611117565b81146111c357600080fd5b5056fea365627a7a7231582013295244d7eed84b08b5fa5f41cffc467ffb98d8bcb3903639e1edb99255db2f6c6578706572696d656e74616cf564736f6c63430005100040",
  "source": "pragma solidity ^0.5.0;\npragma experimental ABIEncoderV2;\n\ncontract Marketplus {\n\tstring public name;\n\tProduct[] public productlist;\n\n\tstruct Product {\n\t\tuint id;\n\t\tstring name;\n\t\tuint price;\n\t\tuint stock;\n\t\taddress payable owner;\n\t}\n\n\tevent ProductCreated(\n\t\tuint id,\n\t\tstring name,\n\t\tuint price,\n\t\tuint stock,\n\t\taddress payable owner\n\t);\n\n    event ProductPurchased(\n\t\tuint id,\n\t\tstring name,\n\t\tuint price,\n\t\tuint stock,\n\t\taddress payable owner\n    );\n\n    constructor() public {\n\t\tname = \"Dapp University Marketplus\";\n    }\n\n    function random(uint number) private view returns(uint){\n\t\treturn uint(keccak256(abi.encodePacked(block.timestamp,block.difficulty, msg.sender))) % number;\n    }\n\t\n\tfunction getList() public view returns(Product[] memory){\n        return productlist;\n    }\n\t\n\tfunction getLength() public view returns(uint){\n        return productlist.length;\n    }\n\t\n\tfunction getName() public view returns(string memory){\n        return name;\n    }\n\t\n    function createProduct(string memory _name, uint _price, uint _stock) public {\n\t\tuint _id;\n\t\n\t\t// Require a valid name\n\t\trequire(bytes(_name).length > 0);\n\t\t\n\t\t// Require a valid price\n\t\trequire(_price > 0);\n\t\t\n\t\t// Require a valid stock\n\t\trequire(_stock > 0);\n\t\t\n\t\t// Generate new product ID from 0..9999\n\t\t_id = random(10000);\n\t\t\n        // Create the product\n\t\tproductlist.push(Product(_id, _name, _price, _stock, msg.sender));\n\t\t       \n\t\t// Trigger an event\n        emit ProductCreated(_id, _name, _price, _stock, msg.sender);\n    }\n\n    function purchaseProduct(uint _id, uint _number) public payable {\n\t\t// Fetch the product\n\t\tProduct memory _product;\n\t\tuint _where;\n\t  \n\t\tfor (uint i = 0; i < productlist.length; i++) {\n\t\t\tif (productlist[i].id == _id) {\n\t\t\t\t_where = i;\n\t\t\t\t_product = productlist[_where];\n\t\t\t\tbreak;\n\t\t\t}\n\t\t}\n\n\t\t// Make sure the product has a valid id\n\t\trequire(_product.id >= 0 && _product.id < 10000);\n\t  \n\t\t// Require enough product items in stock\n\t\trequire(_product.stock >= _number);\n    \n\t\t// Require that there is enough Ether in the transaction\n\t\trequire(msg.value >= _product.price * _number);\n\n\t\t// Require that the buyer is not the owner\n\t\trequire(_product.owner != msg.sender);\n     \n\t\t// Mark as purchased\n\t\t_product.stock -= _number;\n    \n\t\t// Update the product\n\t\tproductlist[_where] = _product;\n    \n\t\t// Pay the seller by sending them Ether\n\t\taddress(_product.owner).transfer(msg.value);\n    \n\t\t// Trigger an event\n\t\temit ProductPurchased(_id, _product.name, _product.price, _product.stock, msg.sender);\n\n    }\n}",
  "sourcePath": "C:\\Program Files (x86)\\cygwin64\\home\\ssuen\\web3\\marketplus\\src\\contracts\\Marketplus.sol",
  "compiler": {
    "name": "solc",
    "version": "0.5.16+commit.9c3226ce.Emscripten.clang"
  },
  "schemaVersion": "3.4.16",
  "updatedAt": "2023-10-23T11:44:04.992Z",
  "networkType": "ethereum",
  "devdoc": {
    "methods": {}
  },
  "userdoc": {
    "methods": {}
  }
}